:0200000080037B
:1000030041507580FFD2A3758140758902758C00BC
:0E001300D28C43880175A8001200D11200D1D2
:0E0021001200D11200D11200D11200D1743F92
:0F002F0012006412015112090012015112093E10
:0A003E00D2081209C6020A9280FEE1
:10006400C0D0C2D3C2D411D1F590C2A0C2A1D2A231
:0F00740011D1C2A211D1D0D022C0D0C2D3C2D4D8
:1000830011D1F590D2A0C2A1D2A211D1C2A211D195
:10009300D0D022C0D0C0E0C2D3C2D47D007808ED56
:0F00A3009312007D1200D10DD8F5D0E0D0D022FD
:0F00B200C0D0D2D3D2D4FD1200961200CB05F0ED
:1000C100E5F0120186DDF1D0D0227C08A3DCFD220F
:1000D100C0D0C2D3C2D47F027EFFDEFEDFFAD0D011
:0F00E10022C0D0C2D3C2D47F027EFA7DFA0000C3
:0F00F000DDFCDEF8DFF4D0D022C0D0D2D3C2D4F2
:0F00FF007C0A7DFA0000DDFCDCF8D0D022C0F0D6
:0F010E0075F008A4F5F09440500F751A00C2A4C4
:0F011D00D2A5E5F024401164800B751A01D2A41D
:10012C00C2A524401164D0F0C322C0F0F5F0E51A4A
:10013C007006C2A4D2A58004D2A4C2A5E5F024B84E
:0F014C001164D0F022C0D0C2D3C2D4C2A4C2A5C5
:0E015B007CB87B0874401200641200D174C09E
:100169001200641200D1900300EC1200641200D155
:0F0179007A08120096DAFB0CDBEFD0D022C0D050
:0F018800C0E0C01FD2D3D2D4FF540F12010CEF2E
:0D01970054F0C4120136D01FD0E0D0D022A9
:0F025000C0D0C0E0D2D3C2D41200F9E58078004C
:0F025F007908134002800508D9F88053E8F51399
:0F026E00200805200A438048B4021AD2097450B0
:0E027D00120186900300120096743012018662
:0F028B00900308120096802BB4031AC209743036
:0E029A00120186900300120096745012018625
:0F02A800900308120096800EB4070BC20880075F
:0C02B700B40604D20BC20AD0E0D0D03252
:10030000000000000000000000FFFF7E7E3C18009F
:1003100000001818181800000C1222444422120C75
:10032000183C3C3C3C3C3C3C18183C7E7E7E7E3C71
:100330001800007EFFFF7E0000003C7EFFFF7E3C39
:1003400000183C7C7CFC7C0000183C3E3F3F3E009B
:100350000000003E3F3F3E3C1800007CFCFC7C3C23
:100360001C000F7F700102030405060708090A0B31
:100370000C0D0E1F2F3F4F5F6F7E7D7C7B7A79784F
:1003800077767574737271605040302010116E175B
:1003900061225D2855334916641551256337594448
:1003A0001E7C7E13137E7C00007F7F49497F3600D0
:1003B00000003E7F51497F3E00008088FEFE808025
:1003C0000000C4E6A2929E8C000044C69292FE6C8D
:1003D0000000302824FEFE2000004ECE8A8AFA72E9
:1003E00000007CFE9292F66400000606E2FA1E0609
:1003F00000006CFE9292FE6C00004CDE9292FE7C3D
:10040000003E7F4151517100007C7E13137E7C00C1
:10041000007F7F060C067F7F0041417F7F414100C6
:10042000007F7F060C187F7F003E7F415151710095
:1004300000070F78780F0700007C7E13137E7C0086
:10044000007F7F060C187F7F0001017F7F01010084
:10045000007F7F09197F6600007C7E13137E7C007D
:10046000003E7F415151710000000018181818001B
:1004700000070F78780F0700007C7E13137E7C0046
:10048000007F7F060C187F7F0001017F7F01010044
:10049000007F7F09197F6600007C7E13137E7C003D
:1004A00000266F49497B3200007F7F494941410066
:1004B000007F7F4040404000007F7F49494141002C
:1004C000003E7F41414141000001017F7F01010069
:1004D00000266F49497B3200003E7F414141410087
:1004E000003E7F41417F3E00007F7F09197F66000B
:1004F000007F7F4949414100003E7F4151517100D9
:10050000007C7E13137E7C00007F7F060C067F7FBD
:10051000007F7F4949414100003E7F41417F3E00CD
:10052000001F3F60603F1F00007F7F49494141003D
:10053000007F7F09197F6600007F7F41417F3E0079
:10054000007F7F4949414100001F3F60603F1F001D
:10055000007F7F4949414100007F7F40404040008B
:10056000003E7F41417F3E00007F7F09090F06006A
:10057000007F7F4949414100007F7F41417F3E002C
:10058000007F7F49497F360000070F78780F07000A
:100590000041417F7F414100007F7F060C187F7F33
:1005A0000001017F7F010100003E7F41417F3E004D
:1005B000007F7F09090F0600007F7F09197F660011
:1005C000007F7F494941410000266F49497B320045
:1005D00000266F49497B3200007F7F09090F060022
:1005E000007F7F4040404000007C7E13137E7C00F3
:1005F00000070F78780F070000266F49497B32000B
:100600000001017F7F010100007C7E13137E7C00CE
:10061000007F7F09197F66000001017F7F010100D3
:10062000007F7F09197F6600003E7F41417F3E00C9
:10063000007F7F3018307F7F007F7F09197F660041
:10064000003F7F40407F3F00007F7F41417F3E0071
:10065000007F7F09197F6600007C7E13137E7C007B
:1006600000307040407F3F00003E7F41417F3E00B0
:1006700000266F49497B3200007F7F08087F7F009A
:100680000041417F7F4141000060F49EBA6EF490CA
:100690000001017F7F010100007C7E13137E7C003E
:1006A000007F7F060C187F7F001F3F60603F1F00A8
:1006B0000041417F7F41410000266F49497B320064
:1006C000007F7F08087F7F00007C7E13137E7C0004
:1006D000007F7F08087F7F0000266F49497B32003A
:1006E000007F7F060C187F7F007C7E13137E7C00CA
:1006F000007F7F081C776300007F7F4949414100EC
:0107000000F8
:0E090000C0D07431120186900401F5F0740627
:0F090E001200B27438120186900431F5F07406AD
:0E091D001200B21200E21200E27454120186BF
:10092B00900461F5F074081200B21200E21200E2BA
:0F093B00D0D022C0D07413120186900539F5F088
:0F094A0074091200B27437120186900581F5F01E
:0F09590074021200B27453120186900691F5F0E9
:0F09680074051200B274591201869006B9F5F0A9
:0E09770074041200B21200E21200E21200E25A
:0E0985001201517447120186900689120096E5
:0E0993001200E21200E21201517443120186BA
:0F09A100900639F5F074051200B2744912018600
:1009B000900661F5F074051200B21200E21200E236
:0F09C0001200E2D0D022C0D0D2D3D2D412015133
:0E09CF00C20A74111201869004A1F5F074069C
:1009DD001200B274181201869003A1120096741AB7
:0F09ED001201869004F9F5F074041200B274320E
:1009FC001201869003B9120096200A047434800206
:0F0A0C0074531201869006D9F5F074051200B2EA
:0F0A1B00200A04743A800274591201869004F97B
:100A2A00F5F074041200B2200A02800241DE745208
:0E0A3A001201869003C11200967454120186B8
:100A48009003D11200967456120186900591F5F024
:100A580074021200B274591201869003A112009612
:0F0A6800745B120186900621F5F074031200B240
:100A7700200A6475A8817B30C3EB120186900308B6
:0F0A8700120096D2092008FDD0D022C0D0D2D3C1
:0F0A9600D2D412015174121201869005B1F5F0FD
:0F0AA50074051200B274181201869005F9F5F06D
:0F0AB40074051200B274341201869005A1F5F09A
:0F0AC30074021200B274371201869005D9F5F053
:100AD20074041200B2D20A20090441438002410583
:100AE200300BFDC20B120151300903020AF0D2D4BD
:100AF200C2D37830791476137A137B007C027D3569
:0F0B020086198AF0E9FE8918751D00ED1201862B
:0F0B110090031812009675A800120B2B120B58A8
:100B2000120B8975A8811200E280ECD2D4C2D3C323
:0F0B3000E9FEF5188A1B8619EBF51CB4000309C2
:0F0B3F008016B40103198010B40206E99410F96E
:100B4E008007B40304E92410F922D2D4C2D38AF068
:0F0B5E00E82C14F8E6FAEE7830F6BC0102801BA2
:100B6D00C0141CE82CF8C0F088F018E6C010A8F0EE
:100B7D00F6D010D0F0DCEFD014783022D2D4C2D31E
:0F0B8D00120BB3120BBFC014B83003120BE508E4
:100B9C00DCF7D0147830120C57E9B51506051D0C8E
:0F0BAC00120CDB120D4822E5F0120186900300B7
:0E0BBB0012009622E9120186C39518B41005A7
:100BC9009003398013B4F005900339800BB4010503
:100BD900900329800390032912009622E6120186C8
:0F0BE900C39519B40118E9C396B4010590032010
:0F0BF8008059B410059003418051900349804CFF
:0E0C0700B41018E9C396B40105900351803E65
:100C1500B4100590033180369003498031B4F01843
:0E0C2500E9C396B401059003598023B4F0058D
:100C3300900331801B9003418016E9C396B41005DD
:100C4300900359800BB4F005900351800390032067
:100C530012009622EA120186C3951BB4011CE82CEC
:100C6300F818E6C39AB401059003208065B4100513
:100C7300900341805D9003498058B4101CE82CF820
:0F0C830018E6C39AB401059003518046B41005DA
:100C9200900331803E9003498039B4F01CE82CF86F
:0F0CA20018E6C39AB401059003598027B4F005F2
:100CB100900331801F900341801AE82CF818E6C395
:0F0CC1009AB41005900359800BB4F005900351BD
:0F0CD0008003900320120096783022D2D4C2D332
:0F0CDF00C01690038DAD8AED5413FE93FD89204E
:0F0CEE00B52002802D85F020B5200280258A20B8
:0F0CFD00B52002801E8620BC0105B52022801480
:100D0C00C010C014B52002800B088620DCF6D0146D
:100D1C00D010800CBE13047E0080020EEE9380C0B7
:100D2C00FD120186900318120096D016ECB4010245
:0F0D3C0080091428F8EAF67830AAF022E9C0D02E
:0F0D4B00D2D4D2D3FF900361782CE493B51F0369
:100D5A00020E20A3D8F5D0D022B4000AC3951CC332
:0F0D6A0094FF70278022B4010AC3951CC3940123
:0F0D7900701A8015B4020AC3951CC394FF700D45
:100D88008008C3951CC394017003020E2022E51D40
:0E0D980075F00A84C200B400059003B18043D8
:100DA600B401059003B9803BB402059003C18033BA
:100DB600B403059003C9802BB404059003D18023A6
:100DC600B405059003D9801BB406059003E1801392
:100DD600B407059003E9800BB408059003F180037E
:0F0DE6009003F9C0E020000C743A120186D0E0AF
:0F0DF500120096800C743B120186D0E01200961B
:0E0E04008006E5F0D20080922274341201863E
:0E0E12009004D1F5F074051200B2120D962274
:0F0E200012015174361201869004F9F5F0740432
:0F0E2F001200B27446120186900519F5F0740492
:0F0E3E001200B21200E21200E21200E21200E211
:080E4D00120151120E0D80FE8E
:00000001FF
